S01E00004558414D504C45535F4D5154542D4558414D504C45312E7372656398
S21400000038550020512700004D2700004D270000DE
S21400001000000000000000000000000000000000DB
S2140000200000000000000000000000004D27000057
S21400003000000000000000004D2700004D270000D3
S2140000404D2700004D27000031270000090700005B
S2140000502D0400004D2700004D2700004D2700000E
S2140000604D270000B5100000C5100000D510000098
S214000070E5100000F5100000051100004D270000F7
S2140000804D2700004D270000E9260000F926000055
S214000090092700004D2700004D2700004D270000CF
S2140000A04D2700004D2700004D2700004D2700007B
S2140000B010B5064C2378002B07D1054B002B02D039
S2140000C0044800E000BF0123237010BD3802002062
S2140000D0000000006436010008B5084B002B03D072
S2140000E00748084900E000BF07480368002B00D116
S2140000F008BD064B002BFBD09847F9E70000000030
S214000100643601003C020020643601000000000056
S21400011010B50020084B9847084CFA218900A047E4
S214000120074B1860FA218900A047064B1860052285
S214000130054B1A6010BDC04665200000250501006D
S214000140040000200000002010E000E030B5084B5E
S2140001501C68084A00258021490206E0002C04D0CD
S2140001605460956013680B42FCD00138F6D230BD5F
S2140001700000002010E000E030B5084B1C68084A7C
S21400018000258021490206E0002C04D054609560CA
S21400019013680B42FCD00138F6D230BD04000020B4
S2140001A010E000E00C4B1B68002B10D1EFF310831F
S2140001B0002B09D172B6BFF35F8F0022074B1A706F
S2140001C00132074B1A7002E00022054B1A70024AF1
S2140001D013680133136070475402002008000020A3
S2140001E058020020084B1A68013A1A601B68002B58
S2140001F009D1064B1B78002B05D00122044B1A7040
S214000200BFF35F8F62B6704754020020580200208A
S21400021008000020F0B5474680B482B001AC012645
S21400022066700027A77026701320211C274DA8474C
S214000230274B984680231B034246936127706670BF
S2140002401C20211CA8476670A77026705220211C0F
S214000250A8473E20211CA8473F20211CA8472F2046
S214000260211CA8471420211CA8478022D202194B23
S2140002709A61803B8022D2059A61802212069A619A
S214000280802212029A6180235B03424693612770A4
S2140002905320211CA847104A136A802189030B4368
S2140002A0136204220D4B1A806B469E70DF70052386
S2140002B06A461370567009206946094CA0470C2000
S2140002C06946A04702B004BC9046F0BD1D0500007C
S2140002D00044004100450041000400400054004234
S2140002E0CD220000044A117802230B431370537882
S2140002F05BB2002BFBDB70470018004000B583B0F4
S214000300124A916940230B43936101A900230B70A5
S21400031005200F4B984705200E4B98470E4A11783C
S21400032001230B43137053785BB2002BFBDB0B4BA4
S214000330191C4031002204C38B42FCD11022084B0A
S2140003401A60084B984703B000BDC0460004004042
S2140003507D210000F120000000180040882A0020BF
S21400036000E100E0E5020000F0B583B0051C0C1CBF
S21400037001A900234B70CB7023790B70237A8B7006
S2140003802078154B984700261F2D00D8134E0722BD
S2140003902A409200E07AA37A002B01D00823184363
S2140003A0EB089B00F318996990400F279740B943D4
S2140003B00A1C02439A61637A002B06D073690122F5
S2140003C0AA40151C1D43756104E073690122AA400A
S2140003D09343736103B0F0BDCD22000000180040C7
S2140003E01723002A0DD18B00074A9B58002B03D1F8
S2140003F089008850002304E0834201D01D2300E0DA
S2140004000023181C7047C046882A0020172300299E
S21400041007D100221F2800D8034A01238340D36057
S2140004200023181C7047C0460018004070B5002214
S214000430154B1A7000231F25144E134C1F2B19D969
S2140004400FE0002100E012490A619B009B59002B37
S21400045000D0984723780133DBB223700F2BEDD9F9
S21400046011E0291C194001228A4000210969114225
S214000470E7D1EFE7291C194001228A40044909699F
S2140004801142E0D1E6E770BDC82A0020882A002085
S2140004900018004010B51E4AD16904230B43D361EF
S2140004A01C4B198B2022FF320A431A831A7D052320
S2140004B0D2072BD502781202C02189000A40141CEC
S2140004C04178C901FF22131C0B40221C1A43C37833
S2140004D09B041343827852001E210A40134302797C
S2140004E01204C02189020A4013430A4A53609368E3
S2140004F05B035B0F084908249C400C8093684B8084
S21400050043780B71138BDB05DB0F1B01181C10BD2A
S21400051000040040004000415C02002000B583B0AB
S21400052001AB80221A700A785A704A789A708A78D4
S214000530DA70191C014B984703B000BDCD220000AD
S21400054010B50268082480230B49CC5001688B7ACA
S2140005505BB2002BFBDB138802218B431380002346
S2140005600375437501688B7A5BB2002BFBDB118841
S21400057001230B43138010BD00E100E010B50468B2
S214000580A37A5BB2002BFBDB0379002B0AD01A2080
S214000590012B13D11720012A10D8063292001151D0
S2140005A000200BE01720022A08D8054B994205D8F0
S2140005B089B20C32520011530020FFE710BDC0462E
S2140005C0FFFF000070B582B0041C151C01602F4AA6
S2140005D0916920230B43936101A902230B70042029
S2140005E02B4B984704202B4B9847201C2A4B9847A8
S2140005F0AB7823712B796371284B1C6026682B8897
S2140006003380AB78002B17D01720012B3CD13388D2
S2140006109BB23380EB78002B34D032888023134390
S21400062033802FE0937A5BB2002BFBDB201CA9689B
S21400063000221B4B98471BE0328804231343338069
S214000640EB781720002B1FD12268937A5BB2002B21
S214000650FBDB201CA9680022114B98472268937A7E
S2140006605BB2002BFBDB201CE96801220C4B984791
S2140006702B790020002B07D072888023DB011343E0
S214000680738001E02268CDE702B070BD0004004030
S2140006907D210000F120000041050000CC2A00204A
S2140006A07D050000022A0BD00379002B05D0012B14
S2140006B012D11633012A10D802E01723022A0CD8CA
S2140006C0931C9B001950017D012393401A1C0A437A
S2140006D0D2B20275002300E01723181C7047C046EC
S2140006E010B50268022902D18023D37104E00123E9
S2140006F08B4003242340D371427D01238B40191C79
S2140007001143C9B2417510BD10B5124B1A68146872
S214000710537D117D1940237AE0790340D80906D02D
S2140007204B0701D5136998478023237210E0D8073A
S21400073006D5CB0701D5936898470123237207E0B7
S2140007409B0705D58B0701D5D368984702232372EC
S21400075010BDC046CC2A002001680722CB691A4289
S214000760FCD17047F0B5474680B482B0071C0D1C1C
S214000770161C3960081C5F4B98475F490A6A841C40
S2140007800123A34013430B6201A9337B0B70143083
S214000790C4B2201C594B9847201C594B9847307BB5
S2140007A00021584B98472B681C209B0700D59DE0DE
S2140007B02B681738DB0700D598E014232B603B68BE
S2140007C09846181C4B4B9847051C80236A461370A6
S2140007D000235370012269468A70CB70F069346A30
S2140007E0002803D140460021474B98476B461870B7
S2140007F002236A465370000CC0B26946434B9847C2
S214000800002C04D1404601213F4B9847041C6B4600
S2140008101C7002236A465370240CE0B269463B4BB8
S2140008209847B38AFB80F38A3B81327E8023002A76
S21400083004D1374B9B789B07DB0FDB013269002A1C
S21400084000D01343B26813432422B25C002A02D0BD
S2140008508022D2051343B26A002A00D013432C220A
S214000860B25C002A02D08022120513432D22B25C0D
S214000870002A02D08022120413432E22B25C002AE1
S21400088002D08022D20313434246126813434246E4
S214000890136080235B0053601435EDB2281C1D4B9B
S2140008A09847FA21C900336859434B1E18181A4B4B
S2140008B09847441FFF2C0DD8281C164B9847716884
S2140008C0FA23DB0059434B1E1818134B9847013880
S2140008D0FF2801D9402009E00004FF231B0418402C
S2140008E0FF231C4004434346DC60002002B004BCE7
S2140008F09046F0BD0D100000000400407D21000071
S214000900F1200000390E0000850E0000CD22000008
S214000910002000419921000025050100F8B5041CBF
S2140009200768074DA8472668201CA8473368022298
S21400093093433360201CA84701233B60F8BDC046A4
S2140009405907000003681A7E920707D502221A7616
S2140009505B8B9B074120DB1718400AE05A8B520737
S21400096006D55A68C02189020A435A60182000E05A
S2140009700020704730B5026800230124022504E0F9
S21400098001339BB20189994207D9117E214206D1D3
S214000990117E2942F4D0002002E0122000E0002060
S2140009A030BDC04610B5046863688022D202134387
S2140009B063606162024B98470123237610BDC046F0
S2140009C075090000F0B55F4656464D464446F0B4FD
S2140009D083B00090884605684C882B681B01DB0FA7
S2140009E099464B7A002B02D0897A4D4B98476A6815
S2140009F04C4B13406B6043461B7A002B26D0434675
S214000A005B7A9A0343461B885B00134380221202DC
S214000A1013436B620098444B98476A68414B1340F7
S214000A206B60031E73D10098404B9847031E6ED12F
S214000A3043465B7A9B030122134342461288120AFE
S214000A4078210A43520013436B6209E043461B8831
S214000A505A0043465B7A9B031343012213436B629F
S214000A600098314B98476A682E4B13406B60031E04
S214000A704DD100982D4B98470190031E47D1013C5D
S214000A80A4B200272A4B9B46274B9A4623E06B8B43
S214000A909B063BD54B46002B02D1002C02D009E02A
S214000AA0012C07D16B688022D20213436B60013C95
S214000AB0A4B210E000981F4B98477E1CB6B22823BD
S214000AC0EB5C42465268D3550098D047013CA4B22E
S214000AD0002803D1371C5C45D9D101E0371C0190B2
S214000AE0009B9B7A002B07D00098124B98476B68A8
S214000AF0C022920213436B6000980E4B984728233F
S214000B00EA5C43465B68DA55019B00E04123181C0B
S214000B1003B03CBC90469946A246AB46F0BDC046E4
S214000B20A5090000FFFFFBFF75090000450900004E
S214000B30FFFF000059070000F0B55F4656464D46D9
S214000B404446F0B483B0061C0F1C05684C88314B35
S214000B5098477B7A002B03D0B97A301C2E4B9847E7
S214000B606A682E4B13406B603B7A002B09D07B7A69
S214000B709A033B885B0013438022120213436B6286
S214000B8005E07B7A9A033B885B0013436B62301C5C
S214000B90234B9847031E36D1301C224B9847031E22
S214000BA0019030D1A046002420339946194B9B462D
S214000BB01B4B9A4611E06B8B4A46134222D0301CE0
S214000BC0D8477B681A5D2823EA54301CD047002893
S214000BD006D16B8B01345B0704D44445EBD103E0AC
S214000BE0019001E01E230193B37A0198002B0AD0EE
S214000BF0301C084B98476B68C022920213436B6008
S214000C00019800E0412003B03CBC90469946A246BD
S214000C10AB46F0BD59070000A5090000FFFFFBFF2B
S214000C20750900004509000008B501238372014BD1
S214000C30984708BDC509000008B500238372014B1C
S214000C40984708BD390B000010B54908402481427A
S214000C500CD30023091A01339BB28842FAD9013B10
S214000C609BB24024FF2B01D813800024201C10BD0B
S214000C70F0B55F4656464D464446F0B489B01C1C57
S214000C8012AB1B78061C5E4340258E4200D9C7E097
S214000C90251C07920C1C021C002D51D1181C00218B
S214000CA00023634DA8478346261C00270023002404
S214000CB002930394002200233F2020218C461F39F4
S214000CC00096019720246442041903D40D1CA54005
S214000CD0A84604E06446241A0D1CE540A8460C1CF1
S214000CE08440A146141C1D1CA4185D41221C2B1C0C
S214000CF05E4647463E4203D00E1C2643321C2B1C43
S214000D00019C9C4210D802D1009C94420CD8009CB6
S214000D10019D121BAB414D46029E039F35433C1C72
S214000D2046463443029503940138CBD20022012371
S214000D3002980399121A8B41110C1B0419436CE09C
S214000D400021012D69D1610F0F1CE1008846181C97
S214000D5000210023364CA047041C0D1C00239C4693
S214000D6020339B46012663460593B9466B461B7D9A
S214000D70069300239C46002000213F220094019504
S214000D8020235B42D31803D4341C9C40231C04E06D
S214000D905B469B1A341CDC40231C371C9740041C03
S214000DA00D1C24184D41201C291C0290039144461A
S214000DB03C40A2464C4623405446234305D0029B63
S214000DC0039C1D1C3543281C211C019B8B420AD802
S214000DD002D1009B834206D8009B019CC01AA14109
S214000DE063463B439C46013ACAD2009C019D62463C
S214000DF00599531ADB080F4A934208D9069A01321E
S214000E00D2B206920A1C01320592082AAED14025BB
S214000E10069A082A04D051031943079B1980002517
S214000E20281C09B03CBC90469946A246AB46F0BD8D
S214000E3029080100FF1F000010B582B0041C0E4BED
S214000E401B78002B01D000290DD001A90C701320AF
S214000E500A4B984713200A4B9847074B5C700122B1
S214000E601A70002006E0044B5B78834201D01D20F8
S214000E7000E0002002B010BD640200207D210000CA
S214000E80F1200000444B984233D006D8434B98429A
S214000E900DD0434B98421BD06FE0424B98424AD04D
S214000EA0414B984258D0414B984266D132E00129D6
S214000EB006D0002963D0022906D0032906D001E017
S214000EC03B4867E0002065E03A4863E03A4861E066
S214000ED0012906D0002954D0022906D0032906D0BD
S214000EE001E0364856E0002054E0354852E03548E8
S214000EF050E0012906D0002945D0022906D0032952
S214000F0006D001E0304845E0002043E02F4841E0AD
S214000F102F483FE0012906D0002936D0022906D006
S214000F20032906D001E02B4834E0002032E02A48AE
S214000F3030E02A482EE0012906D0002927D00229D1
S214000F4006D0032906D001E0254823E0002021E052
S214000F5024481FE024481DE0012906D0002918D0A7
S214000F60022906D0032906D001E0204812E000201E
S214000F7010E01F480EE01F480CE000200AE01E4864
S214000F8008E0032006E01D4804E01D4802E01D4876
S214000F9000E01D487047C0460010004200080042AE
S214000FA0000C004200180042001C004200140042E0
S214000FB0030005000300060003000700030001000D
S214000FC003001E0003001F0002000D0002000E00BA
S214000FD002000F00030011000300120003001300BC
S214000FE005003F0005003E00050052000300170004
S214000FF003001800030019000300040002000C00A0
S21400100003001000050053000300160030B587B03B
S2140010100C4B6A4632CB32C232CB32C2009B834282
S21400102006D001239A0069465258824203D100E056
S2140010300023D8B203E00133062BF3D1002007B01B
S21400104030BDC046D41D01007047C046F0B50A4BFF
S2140010501B78002B0CD1094F094E0A4D0024DE5197
S2140010605A1914600433182BF9D10122024B1A7056
S2140010708000024BC150F0BD6602002068020020CE
S21400108049100000D02A002010B582B0041C684623
S21400109005490622054B9847201C054B98476B468A
S2140010A0185602B010BDC046EC1D0100E70801004E
S2140010B00D10000008B5024B1B680020984708BDBD
S2140010C06802002008B5024B5B680120984708BDFF
S2140010D06802002008B5024B9B680220984708BDAE
S2140010E06802002008B5024BDB680320984708BD5D
S2140010F06802002008B5024B1B690420984708BD0B
S2140011006802002008B5024B5B690520984708BDB9
S21400111068020020F0B557464E464546E0B48AB011
S214001120051C0E1C141C29600B689B0700D48EE05F
S214001130936A0593D36A0693136B0793536B0893CE
S21400114000271F239946F9B2BB0005AA9858002825
S21400115002D1301C904B9847431C2BD001040B0C3B
S2140011609846000CC3B29C460023020605D463468C
S2140011705B09DB01894A924653444A466046024070
S214001180981840300078824680205146C9070BD513
S21400119052089B1830331878C0B26346DB0701D577
S2140011A0000901E00F231840804503D000232B6080
S2140011B01C20EAE00137042FC5D11320784B98474E
S2140011C0011C22780020012A11D1A06904AA754BBF
S2140011D09847031C1720002B00D0D6E0337BDBB2E9
S2140011E004AA127805309A4200D0CEE01038A368E0
S2140011F062681343E26813430343217C627C002A3F
S21400120001D080221343A27C002A02D080229202C0
S2140012101143E27C002A02D0802292001143227DF4
S214001220002A02D080229201114330680222134322
S214001230834208D173688B4205D123786B71237C77
S214001240AB710020A1E000232B601C209DE00B6802
S2140012500520DB0700D598E0081C534B98475349F8
S2140012600A6A871C0123BB4013430B6209A9242783
S214001270E35D0B701430C3B20193181C4C4B9847B7
S21400128001984C4B9847E05D00214B4B98472378DC
S214001290012B03D132680B33134333602E6804AB43
S2140012A080221A7000225A7001219970DA70237811
S2140012B0002B01D104AB9A70A36A0593E36A0693E8
S2140012C0236B0793636B08930027F9B2BB0005AA4C
S2140012D09858002802D1301C2F4B9847431C06D044
S2140012E002AB1872000CC0B204A9344B9847013701
S2140012F0042FEAD123786B71237CAB71A37CEB714E
S214001300237D2B72002202ABDA802378012B14D1C6
S2140013102868254B98471430C0B2214B9847011CCB
S214001320A06902AB9A1D1F4B9847031C1720002B81
S2140013302BD102AB06331B783373A3686268134362
S214001340E2681343227C617C002903D11C4989781A
S214001350890701D580210B43A17C002902D080217A
S21400136089020A43E17C002902D0802189000A43D1
S214001370217D002902D0802189010A4331680B4370
S214001380336073681A43726000200AB01CBC904633
S2140013909946A246F0BDC046850E000000440041B6
S2140013A099210000490C00000D10000000040040C8
S2140013B07D210000F1200000390E0000CD22000043
S2140013C00020004110B544791523012C70D1047A11
S2140013D00023002C6CD1002A5AD04B78002B46D024
S2140013E003681B7EDB0710D40B78D909002200297E
S2140013F004D15A09D2012F498C4662441F210B4062
S2140014001E3999409161052352E00B78DC090022D1
S214001410002C04D15A09D201264CA44662441F244B
S21400142023401E3C9C4054618A780368197EC90795
S21400143000D59A62C2790023002A39D102680421B5
S214001440137E0B42FCD0117E0023490730D5538B08
S2140014505B0703D5518B04230B4353838379012BFE
S21400146002D1936A002323E0936A002320E00B78DE
S214001470D9090022002904D15A09D2010D498C4607
S21400148062441F210B401E399940516100230FE032
S2140014900B78D9090022002904D15A09D20105493E
S2140014A08C4662441F210B401E39994091610023EF
S2140014B0181C10BD00440041F0B55F4656464D4628
S2140014C04446F0B491B0051C0C1C161C2960081C80
S2140014D0BD4B984722680523D20700D56BE12268EA
S2140014E01733920700D566E1B8490A6A871C1B3B8A
S2140014F0BB4013430B620FA92D27F35D0B7014300E
S214001500C3B20393181CB24B98470398B14B984745
S214001510F05D0021B04B9847F37A6B712423F35C9F
S214001520AB712523F35CEB71F37E2B72337F6B720A
S2140015302B689A46181CA44B9847143000220E239A
S21400154006A98C4663441A80338A99468023DB01B9
S214001550994519D004D880239B0199450AD00CE1FF
S214001560C023DB0199450AD080231B02994500D190
S21400157008E102E1102306930F3B079306E10823D8
S2140015800693073B079301E133689B46F368039392
S21400159073690493337E98462623F35C0593736839
S2140015A0002B15D080225205934236D12723F35CB8
S2140015B0002B36D1336A1F1CC0B2884B9847011CDB
S2140015C0381C0E2206AB9C466244854B984725E0A5
S2140015D008230693002307932723F35C002B0BD0E6
S2140015E0069B0093306AB16A0E2206AB9C466244A4
S2140015F0079B7C4FB84711E0336A1F1CC0B2774B7D
S2140016009847011C069B0093381C0E2206AB9C468E
S2140016106244079B734FB84700E00020031E00D0CB
S214001620C9E0737E002B02D0B37E524693732A68BD
S214001630059FD369002BFCD10E3306AA944663445B
S2140016401B8852469381039B5A461343049A1343BE
S214001650726813434A4613434246120213437F07F7
S2140016601F432723F35C002B01D104331F43717EF5
S2140016708902337F5B021943F37AB27A1343194324
S214001680727F120211432423F25C52040B1C134394
S2140016902522B15C090419433389FF2B0BD0F27E57
S2140016A0002A03D0A022D204174302E0802252046C
S2140016B01743194305E0F37E002B02D08023DB049A
S2140016C01F432C23F35C002B03D1474B9B789B07CF
S2140016D001D580231F432A68D369002BFCD15346CB
S2140016E059602A68D369002BFCD153461F600EABA5
S2140016F080221A7000225A70DA709A70336B0A933E
S214001700736B0B93B36B0C93F36B03930D930027E0
S2140017100EAEF9B2BB000AAA9858002802D1201CC7
S214001720324B9847431C05D03070000CC0B2311CB9
S2140017302F4B98470137042FEBD10023EB602B612A
S2140017406B61AB61EB612B62AB626B620022EB8577
S214001750AB853033EA540133EA540133EA5401339B
S214001760EA542868184B9847041C2249224B98478D
S214001770A400224BE55000231DE01023069300230F
S214001780079303E0032306930023079333689B46DF
S214001790F368039373690493337E98462623F35CB9
S2140017A005937368002B00D116E7802252059342FA
S2140017B000D1FBE635E7181C11B03CBC90469946B4
S2140017C0A246AB46F0BDC0460D1000000004004027
S2140017D07D210000F1200000390E00009921000054
S2140017E0490C0000710C000000200041850E00002E
S2140017F0CD220000451900004D100000D02A002020
S21400180010B50368C4791C22002C0DD0C08D80B2A0
S214001810173A002808D1DA69002AFCD11985022176
S2140018201A7E0A42FCD00022101C10BD10B50468B7
S21400183082791C23002A33D0828D92B2173B002A6D
S2140018402ED1227E52072BD5E369002BFCD1638B69
S214001850DBB29A0621D09A0703D502236383183396
S2140018601EE05A0703D5042363831A3318E0DA0709
S21400187003D501236383123312E0DA0605D5628BA3
S21400188010231343638342230AE09B0605D5628B2D
S214001890202313436383412302E0238D0B80002320
S2140018A0181C10BDF0B557464E46C0B483B017237B
S2140018B0002A3CD084790533002C38D08A468146ED
S2140018C00568171C002604242CE02A7E224204D138
S2140018D0012B23D0013B002BF7D16B46991D00232B
S2140018E00B804846154B9847002819D1731C99B2AF
S2140018F06B4606331B88524693554A465279012A50
S21400190005D1B21C96B21B0A5246535400E00E1C78
S2140019107A1E97B2002F05D1002308E0122306E0B6
S214001920031C04E02B7E2342D7D1054BCDE7181CC1
S21400193003B00CBC91469A46F0BDC0462D18000078
S214001940FFFF0000F8B58000654BC5582C68E369BA
S214001950002BFCD1237EA67D1E403123EB5C30227B
S214001960AF5C1F40F30722D5EB8D9BB2002B1CD03B
S214001970AA6A1378DBB2511CA9626979012901D0E1
S2140019809BB204E0517809020B430232AA62DB05DF
S214001990DB0D2385EB8D013B9BB2EB85002B06D13F
S2140019A0013323750133A37501E001232375B307C3
S2140019B009D50223237500223133EA54FB0702D5EA
S2140019C0281CEB68984773076AD5AB8D9BB2002B33
S2140019D064D0638BDBB21A0702D43F22134001E0C7
S2140019E037221340002B37D09A0707D51A22322306
S2140019F0EA54628B303B1343638327E05A0707D5CC
S214001A001E223223EA54628B2E3B134363831DE06F
S214001A10DA0707D513223223EA54628B313B13438D
S214001A20638313E0DA0607D542223223EA54628B38
S214001A30223B1343638309E020221A4206D0213258
S214001A403223EA54628B123B134363837B0727D50A
S214001A50281C6B69984723E0238DDB05DB0DDAB283
S214001A60696A0A706A6A511C69626979012904D137
S214001A701B0A53706B6A01336B62AB8D013B9BB2E2
S214001A80AB85002B0CD10433237500222E33EA5489
S214001A90BB0705D5281C2B69984701E0042323754E
S214001AA0F30607D5102323752376FB0602D5281CDC
S214001AB0EB699847B30607D52023237523763B07A3
S214001AC002D5281CAB699847330707D5082323752A
S214001AD02376BB0602D52B6A281C9847F8BDC0465D
S214001AE0D02A002008B5082803D880001B4B1B58B6
S214001AF09F46002031E01A4B18692EE0194B186AF1
S214001B008005800F184BC340181C26E0144B5869FC
S214001B1023E0134B1B68022018401ED011491022E8
S214001B20CB681A42FCD00E4B1B685B0714D500200E
S214001B300E4B98470A4B9B681B041B0C58430CE043
S214001B405023084AD35C00205B0706D5044BD868B0
S214001B5003E08020000200E0054808BDF41D0100F7
S214001B60800200200008004000127A009921000040
S214001B70006CDC0270B50C4C236A017885784278DC
S214001B800120024092014026B3431343021C2A4020
S214001B90D2017F308343134303220A4012020349D3
S214001BA00B401343236270BD00080040FFFCFFFF9C
S214001BB0F0B55F4656464D464446F0B483B02E4ECA
S214001BC0B38A9C46457803785A425A4191468378B0
S214001BD09B46C37802799046477B027B0192847BC2
S214001BE082682648426101204A46920091460422B5
S214001BF09246624651468A4394464A4661460A439E
S214001C00944642460240D2009046082291466246DA
S214001C1049468A439446424661460A4394460340F0
S214001C201B0110229046624641468A43134359469A
S214001C3001404901202293430B43019A024092013E
S214001C4040218B4313430740FF01802293433B43CD
S214001C50793A15402D020A4F3B402B43044020039F
S214001C60084C1C400443B48203B03CBC90469946E2
S214001C70A246AB46F0BDC0460008004080020020E9
S214001C80FFF8FFFFFFEFFFFF10B5037A9B061A0C65
S214001C9043899B059B0D1343154C636081884388DD
S214001CA01943C379827913430B434278D201134315
S214001CB023600378042B0FD1037B9B06028A134311
S214001CC0191CC3891B040B4A13400B43A3602168ED
S214001CD004230B43236009E0202B07D1028A044B20
S214001CE09A601A688421C9000A431A6010BDC0466B
S214001CF0800200200000FF03082803D88000224B43
S214001D001B589F4617203EE0204A116A02230B43C9
S214001D101362002037E01D4A916902230B4393614A
S214001D20002030E0194A118A02230B431382002058
S214001D3029E0164A918A02230B439382002022E070
S214001D40134B196802220A431A601A68114B134093
S214001D500E4A9384111C1022CB681A42FCD00C4AFF
S214001D6091680A4BD96251689962126892B29A8455
S214001D70002008E005494422885C022303438B5474
S214001D80002000E000207047181E010000080040F8
S214001D90800200207FFF0000F0B557464E464546BD
S214001DA0E0B48EB0C222D200594B9A60594A5368AA
S214001DB01E218B435360062201AB1A700024564D39
S214001DC0E0B201A9A8470134252CF9D10AA80023BE
S214001DD003708370802212028260C3700122027137
S214001DE0837306214170437302734C4B984705205A
S214001DF04B4B984746490222CB681A42FCD005A8AE
S214001E0000230025438083808571C57107220272F6
S214001E103F334381042101704570424901820273B9
S214001E20C381414B984704A84570057085703F4BA9
S214001E30984706203A4B994698473D4B984701AC41
S214001E400126666065702572657205239A462370C2
S214001E500120211C374B984698470120364FB8473B
S214001E606660657065725346237026720220211CD8
S214001E70C0470220B8476660657006239A462370FE
S214001E80257265720320211CC0470320B847657081
S214001E906572032323701D33636026720420211CA1
S214001EA0C0470420B84766606570534623702572A5
S214001EB065720520211CC0470520B8472670002003
S214001EC0211C154B984700201C4B98470720C847F5
S214001ED00F49D022CB681340D02BFBD1184A0023E1
S214001EE013725372937201A94B700B724B720733C5
S214001EF00B70013B4B6000200E4B984700200E4BAA
S214001F0098470EB01CBC90469946A246F0BDC04607
S214001F1000080040004000417D210000B11B000089
S214001F20F91C0000B9050000891C0000751B0000A4
S214001F30451F0000691F000021200000F12000005E
S214001F4000040040064A916908230B43936101226E
S214001F50044B1A70191C0B781342FCD17047C0460C
S214001F6000040040000C004070B5061C041C0D78F0
S214001F702D0205434B78002B02D08023DB021D4345
S214001F804B7A002B02D080231B031D434868012890
S214001F9018D9431E184210D1022806D9022300225F
S214001FA001325B009842FBD800E000221202324366
S214001FB0141C80235B031D4304E004023443802387
S214001FC09B021D430B7A002B02D080239B031D43EC
S214001FD00F4A53785BB2002BFBDB0E4B98470E4B39
S214001FE01E700B4A53785BB2002BFBDB084B9C60E1
S214001FF01A1C53785BB2002BFBDB054A5168802322
S2140020005B020B401D435560044B984770BDC046AD
S214002010000C0040A5010000080C0040E50100008F
S21400202010B5041C0B4A53785BB2002BFBDB0A4B43
S21400203098470A4B1C70074A53785BB2002BFBDBB1
S214002040044A5368802149020B435360044B984767
S21400205010BDC046000C0040A5010000040C004066
S214002060E501000070B5041C1A4A53785BB2002BD9
S214002070FBDB194B9847194B1C70164A53785BB21A
S214002080002BFBDB134E7068C004C00E144B984741
S214002090051C124B1C707668F602F60F114B1C706E
S2140020A00C4A53785BB2002BFBDB0A4B9C68240A75
S2140020B0A4B20D4B9847002E07D1012C07D9281C37
S2140020C0211C0A4B9847051C01E00134E540281CFA
S2140020D070BDC046000C0040A5010000040C004086
S2140020E0E51A0000080C0040E50100002505010087
S2140020F010B5041C064B9847064B1C70064A5188C0
S2140021008023DB010B435380044B984710BDC04629
S214002110A5010000020C0040000C0040E501000094
S21400212010B5041C0F4B98470F4B1C700F4B5A886A
S2140021301205100F59880E4A0A405A8059880D4ACF
S2140021400A405A80191C8022D2014B881342FCD1C7
S214002150064902024888064B034013434B80064B51
S214002160984710BDA5010000020C0040000C00407E
S214002170FFF0FFFFFFBFFFFFE501000010B50C7882
S21400218024020443024B9847A4B2024B5C8010BD65
S21400219021210000000C004010B5041C064B984797
S2140021A0064B1C70064B5C882405240F054B98478D
S2140021B0201C054B984710BDA5010000020C0040EE
S2140021C0000C0040E501000065200000F0B5002886
S2140021D01ADBC617B60F3018FF22920002400F4BCC
S2140021E09C466244C025AD00575903242040801BFE
S2140021F0C0000630C3B29C40381CA0439940031C64
S2140022000B435351002306E01723421C03D1490712
S214002210034B19620023181CF0BDC04600E100E025
S21400222000ED00E030B5D378002B1ED11478802C5A
S21400223004D0240680235B021C4300E0002453786D
S2140022400225AB430AD19378002B03D180239B024F
S2140022501C4302E0C023DB021C4341605378013B71
S214002260012B12D8184B1C400FE041600B041B0CCE
S214002270A024E405234383620B0CD02424062343C6
S2140022808362D378002B18D01CE00B041B0CA0250F
S214002290ED052B43234383620B0CD0252D062B43E1
S2140022A023438362D378002B0CD1630305D5937840
S2140022B0012B01D1816100E041615378013B012B84
S2140022C000D8816030BDC046FFFFFBFF08B5031C89
S2140022D00A1CC1090020002904D15809C00105497B
S2140022E08C4660441F210B401E399940024B98478C
S2140022F008BDC04600440041252200007047C04685
S21400230008B5044B9847044B9847044B9847044B32
S214002310984708BD991D000015020000FD22000028
S214002320FD02000030B585B001AA0B4B32CB32C29D
S214002330019B83420AD0029B834205D00023039A66
S214002340824205D1023302E0012300E00023DBB223
S214002350181C05B030BDC0463C1E0100F0B54F4607
S2140023604646C0B487B0041C0E1C9046081C914B11
S21400237098478146904D291C0C3105A803228F4FA3
S214002380B847291C103103A80622B8470023A360CB
S214002390E36023616361237663764B469A00884B3D
S2140023A0D450266043469B78082B04D117204A4613
S2140023B0D20700D4F9E0237133880520DB0700D567
S2140023C0F3E0F37B1730DB0600D5EEE033889B079F
S2140023D000D5EAE043461B7C002B0CD002A9012363
S2140023E08B700022CA704246127E0A704B704346BB
S2140023F0187D744B984743461B7F002B0DD002A9CF
S21400240001238B700022CA704246526A0A704B70D3
S21400241043461B6AD8B26B4B98476B490B6A4A46D1
S214002420520003A8125A13430B6243469B78082BAC
S21400243006D10B6A4A4601325200125A13430B6207
S21400244001A943461B780B7005AB4A469D5C281CC9
S2140024505E4B9847281C5E4B9847434698881B89D6
S21400246003434246907992781043184343465B787C
S214002470002B02D080231B01184321687F22CB7BD0
S2140024809343FCD130804346587B431E98418000DE
S21400249043469B7B002B01D00123184321687F22F3
S2140024A0CB7B9343FCD1FF333371002805D02168E2
S2140024B07F22CB7B9343FCD170714346987ADB7ABC
S2140024C0002B01D01023184343461B7B002B01D062
S2140024D02023184321687F22CB7B9343FCD1B07125
S2140024E022687F21D37B8B43FCD12379042B05D034
S2140024F0082B41D01720002B57D124E07F21D37B17
S2140025008B43FCD128334246D35C337421687F2248
S214002510CB7B9343FCD129334246D35C3375216889
S2140025207F22CB7B9343FCD12A334246D35C33765F
S21400253021687F22CB7B9343FCD12B334246D35C6E
S2140025407376002031E07F21D37B8B43FCD143465A
S2140025501B8D338221687F22CB7B9343FCD143467D
S2140025605B8D338321687F22CB7B9343FCD143462C
S2140025709B8D7383002018E07F21D37B8B43FCD197
S21400258043469B6A336121687F22CB7B9343FCD111
S2140025904346DB6AB36121687F22CB7B9343FCD141
S2140025A043461B6BF3610020FFE707B00CBC904668
S2140025B09946F0BD252300003C1E0100E7080100F7
S2140025C0E82A0020CD220000000400407D21000003
S2140025D0F120000002687F21D37B8B43FCD1037976
S2140025E0042B05D0082B09D00020002B08D102E0D0
S2140025F0107CC0B204E0108A80B201E01069FFE7E8
S2140026007047C04630B504687F25E37BAB43FCD1FA
S2140026100379042B05D0082B14D01720002B19D1D2
S21400262007E01720012915D8D2B261180A760020D3
S21400263010E0172001290DD892B20C3149000A5338
S214002640002007E01720012904D8063189000A5126
S2140026500020FFE730BDC046931C9B001950022A9D
S21400266004D1027E1023134303760CE0032A04D120
S214002670027E20231343037605E0012393401A1CB1
S214002680037E1A43027600207047C04638B58000A5
S214002690144BC5582B689C7B2B7E1C406B7E1C40C5
S2140026A0E30705D5281CAB68984701232A6893736F
S2140026B0A30705D5281CEB68984702232A6893735E
S2140026C0E30605D5281C2B69984710232A689373C0
S2140026D0A30605D5281C6B6998472B6820229A7399
S2140026E038BDC046E82A002008B50020014B9847B0
S2140026F008BDC0468D26000008B50120014B98474E
S21400270008BDC0468D26000008B50220014B98473C
S21400271008BDC0468D260000044AD3795BB2002B64
S214002720FBDBA522014B1A727047C0460010004022
S21400273008B50122034B9A71034B1B68002B00D08F
S214002740984708BD00100040F42A0020FEE7C04667
S21400275010B51B4B1B4A9A4203D01B4B184A9A4291
S21400276004D31A4B1A4A9A4210D31EE0194A164B43
S21400277003339B1A9B0801339B0000221048114923
S2140027808C58845004329A42FAD1EAE7124A0F4B28
S21400279003339B1A9B0801339B0000220C48002140
S2140027A01418216004329A42FAD10C4A7F210C4B4D
S2140027B08B4393600B4B98470B4B9847FEE7C046FE
S2140027C00000002064360100380200203835002062
S2140027D038020020040000203C02002000ED00E04B
S2140027E0000000007D080100E9F80000F0B547464B
S2140027F080B40C1C9046002810D1002A0ADD8F18E1
S214002800094E0A4D3068211C2B6898470134BC429B
S214002810F8D101E000239846404601E001204042FE
S21400282004BC9046F0BDC046002B0020F82A0020CD
S214002830F0B5474680B40138022815D8002A10D0D3
S214002840151C0E1C00240C4B98460C4F434618686B
S214002850315D3B689847002809DB0134A542F5D175
S21400286000E00024201C04E00120404201E001209A
S214002870404204BC9046F0BD002B0020FC2A0020FD
S214002880031C064A1268002A02D10549034A116051
S214002890024A1068C31813607047C04698020020AA
S2140028A038550020012040427047C04680239B01D7
S2140028B04B6000207047C0460120704700207047DC
S2140028C070B582B0051C0E1C00226B46DA80064CE2
S2140028D0281C6B46991DA0470028F9D16B46063385
S2140028E01B88337002B070BD2D18000070B5051C33
S2140028F08CB2034E281C211CB0470028FAD170BDAC
S2140029000118000010B582B06B46DC1D1248211C71
S2140029100122124B984772B6BFF35F8F0022104B0E
S2140029201A70104A1378013313700F4B1B782178F6
S2140029300E4AD1549B2B03D100220B4B1A7002E097
S2140029400133094A13700122054B1A70BFF35F8FDB
S21400295062B602B010BDC04638030020A5180000BD
S214002960080000206D0300206C0300209C0200205D
S214002970F0B591B08023DB05009300230193FF227E
S21400298069460A8100228B72CB7201242421684694
S21400299044540131445401314354013143540A93A1
S2140029A0053143540131435405930382C3760276BE
S2140029B00277427613238376427780235B03039362
S2140029C02C4B0C932C4B0D9301235B420E930F93D1
S2140029D0E1235B020893294D294B1D60294A2A4BA7
S2140029E01A602A4A2A4B1A60281C2A496A462A4B29
S2140029F098472A4F3B6898680021294EB0473B68A5
S214002A0058680021B0472E68301C264B98471F2375
S214002A1018408440244B1C602A68D369002BFCD1E4
S214002A203268023313433360144B1B68DA69002A9A
S214002A30FCD15A68802149020A435A6001210F4A94
S214002A40D171DA69002AFCD15A68802189020A43CA
S214002A505A600122094B9A7100201449144B98477A
S214002A6004220C4B9A75FD32FF320F4B1A6011B0E0
S214002A70F0BDC04603000400030005003803002034
S214002A80002B0020ED280000FC2A0020C1280000B2
S214002A90F82A002000080042B91400003402002082
S214002AA0610A01008910000000E100E0052900002D
S214002AB04D10000008B50122034B1A61034B1B683A
S214002AC0002B00D0984708BD001800407003002077
S214002AD010B584B0324A0023537093703F211170B2
S214002AE0304C21706370A370012269464A708B7067
S214002AF00A703F202C4B98472378D90900220029DA
S214002B0004D15A09D20129498C4662441F210B4040
S214002B101E39081C98409061254A117000235360A6
S214002B209360137453749174D17413752331535492
S214002B30D361136280235B02D3601E4B93611E4BEE
S214002B40936201235B42D3621C4B13631C4B53639B
S214002B501C4C201C1C491D4B98472268D369002B2F
S214002B60FCD1116802330B43136001A901234B7299
S214002B7000238B7220220192802292034A600B72FD
S214002B800333CB720020124B9847124800210022D4
S214002B90114B984700200021104B984704B010BDF9
S214002BA0082B00200C2B00201D05000000440041CF
S214002BB0102B002000093D000500530005003E00D4
S214002BC005005200482B0020001800421511000096
S214002BD069030000B52A0000E10300000D040000B0
S214002BE070B5051CEFF3108463425C4172B6BFF308
S214002BF05F8F0022334B1A70334E301C334901323C
S214002C00334B9847336801211A7E0A42FCD01A7E5D
S214002C10D20702D5802215439D6202211A7E0A42FF
S214002C20FCD004211A7E0A42FCD01A7E520714D524
S214002C305A8B520703D5598B04220A435A83224AD9
S214002C409279012A05D19A6AD205D20D21490A80C5
S214002C5003E09A6AD2B21F490A8001211A7E0A420C
S214002C60FCD01A7ED20701D500229A6202211A7E73
S214002C700A42FCD004211A7E0A42FCD01A7E0025A5
S214002C80520710D55A8B520703D5598B04220A4394
S214002C905A830D4A9279012A03D19D6AED05ED0DFE
S214002CA001E09D6AEDB2084808490022084B9847A3
S214002CB0002C05D00122034B1A70BFF35F8F62B65B
S214002CC0E8B270BD08000020482B00200C2B002026
S214002CD0C5130000042B0020F8B5061C0C1CEFF3EF
S214002CE010856B425D4172B6BFF35F8F0022344B96
S214002CF01A70344F381C34490132344B98473B68BD
S214002D0001211A7E0A42FCD01A7ED20702D5C022C2
S214002D1016439E6202211A7E0A42FCD004211A7EC5
S214002D200A42FCD01A7E520714D55A8B520703D596
S214002D30598B04220A435A83224A9279012A05D1E2
S214002D409A6AD205D20D22490A8003E09A6AD2B264
S214002D501F490A8001211A7E0A42FCD01A7ED20739
S214002D6000D59C6202211A7E0A42FCD004211A7EFB
S214002D700A42FCD01A7E520714D55A8B520703D546
S214002D80598B04220A435A830E4A9279012A05D1A6
S214002D909B6ADB05DB0D0E4A138003E09B6ADBB201
S214002DA00B4A1380074808490022084B9847002D15
S214002DB005D00122024B1A70BFF35F8F62B6F8BDD2
S214002DC008000020482B00200C2B0020C513000014
S214002DD0042B0020014B18607047C046700300208B
S214002DE038B50D1C141C034B984728402041C0B230
S214002DF038BDC046E12B0000F8B55F4656464D4646
S214002E004446F0B4051C0C1CEFF310877A427A4156
S214002E10904672B6BFF35F8F0022414B1A70414E48
S214002E20301C41490132414B9847336801211A7ED4
S214002E300A42FCD01A7ED20701D520229A620221CD
S214002E401A7E0A42FCD004211A7E0A42FCD01A7E60
S214002E5052070FD55A8B520703D5598B04220A43C3
S214002E605A83304A9279012A09D19B6ADB05DB0D29
S214002E702F4A1380631EDBB2002C05D13CE09B6A10
S214002E80DBB22B4A1380F5E701339C46AC44202680
S214002E90244B9946012000239A46022404214F46DB
S214002EA004239B464B461B681A7E0242FCD01A7EC1
S214002EB0024201D052469A621A7E2242FCD01A7E04
S214002EC00A42FCD03B681A7E0A4211D05A8B0A424C
S214002ED004D05A8B5E46324392B25A83114A927994
S214002EE0012A03D19E6AF605F60D01E09E6AF6B247
S214002EF02E7001356545D5D10A480B4900220B4B8B
S214002F0098474346002B05D00122054B1A70BFF3A5
S214002F105F8F62B63CBC90469946A246AB46F8BD6B
S214002F2008000020482B00200C2B0020C5130000B2
S214002F30042B0020F8B54F464646C0B4041C0D1CB2
S214002F40EFF3108672427241914672B6BFF35F8FFE
S214002F5000223C4B1A703C4F381C3C4901323C4B1B
S214002F6098473B6801211A7E0A42FCD01A7ED20797
S214002F7001D560229A6202211A7E0A42FCD0042100
S214002F801A7E0A42FCD01A7E52070FD55A8B520779
S214002F9003D5598B04220A435A832B4A9279012A75
S214002FA00ED19A6AD205D20D2A490A80264A92790B
S214002FB09046261C012702200424042294462BE077
S214002FC09A6AD2B223490A80F0E71A7E3A42FCD0C7
S214002FD03278197E394200D09A621A7E0242FCD0BC
S214002FE01A7E2242FCD01A7E224214D05A8B2242EB
S214002FF004D05A8B61460A4392B25A834246012A4B
S21400300005D19A6AD205D20D12490A8003E09A6A5F
S214003010D2B210490A800136013DEDB2FF2DD4D15F
S21400302009480A4900220A4B98474B46002B05D010
S2140030300122044B1A70BFF35F8F62B60CBC904639
S2140030409946F8BD08000020482B00200C2B0020D5
S214003050C5130000042B0020F8B55F4656464D46C3
S2140030604446F0B4041C0D1C161C01205A4B98470D
S214003070EFF310877A427A41904672B6BFF35F8FBD
S2140030800022564B1A70564F381C56490132564B82
S21400309098473B6801211A7E0A42FCD01A7ED20766
S2140030A001D500229A6202211A7E0A42FCD004212F
S2140030B01A7E0A42FCD01A7E520714D55A8B520743
S2140030C003D5598B04220A435A83454A9279012A2A
S2140030D005D19A6AD205D20D44490A8003E09A6A5D
S2140030E0D2B242490A8001211A7E0A42FCD01A7ED8
S2140030F0D20700D59C6202211A7E0A42FCD0042127
S2140031001A7E0A42FCD01A7E52070FD55A8B5207F7
S21400311003D5598B04220A435A83314A9279012AED
S21400312009D19B6ADB05DB0D304A1380731EDBB2C8
S214003130002E05D13CE09B6ADBB22C4A1380F5E7F3
S21400314001339C46AC440026254B994601200023BB
S2140031509A46022404214F4604239B464B461B688E
S2140031601A7E0242FCD01A7E024201D052469A6271
S2140031701A7E2242FCD01A7E0A42FCD03B681A7E97
S2140031800A4211D05A8B0A4204D05A8B5E4632430A
S21400319092B25A83124A9279012A03D19E6AF605A0
S2140031A0F60D01E09E6AF6B22E7001356545D5D162
S2140031B00B480C4900220C4B98474346002B05D081
S2140031C00122064B1A70BFF35F8F62B63CBC904676
S2140031D09946A246AB46F8BD4D0100000800002007
S2140031E0482B00200C2B0020C5130000042B0020C9
S2140031F0F0B5474680B4061C0D1C141C1548111C5F
S214003200154B984700232B707F27134B9846391C85
S2140032102140E40911D0802319432B78F1542B78F0
S21400322001332B700D48221CC0472B78042BEED997
S21400323029780B48084B984709E02B78F1542B78EF
S21400324001332B7005480022034B9847F0E704BC77
S2140032509046F0BD541E010031090100741E0100A5
S214003260A01E010010B5041C636E9847E06E034B69
S21400327019780022024B984710BDC046542B0020F8
S214003280F9EB000010B5041C002186229200024BC8
S21400329098470123A37310BD2109010038B5041C0B
S2140032A01248134DA847134BE1181348A847134B71
S2140032B0E15C1348A847D823DB00E218201C042151
S2140032C0104B9847104BE35C012B02D100220E4BAB
S2140032D0E2540E4BE35A002B07D10D48044B984797
S2140032E09523DB00E0180B4B984738BDC41E010041
S2140032F031090100C4060000081F0100B9040000DF
S214003300301F0100653200000E07000012070000A3
S214003310501F01008532000070B584B0041C0522E1
S2140033206023C254043A0833C2520022A7239B00EB
S214003330C2523823C2549523DB00C018104B98475E
S2140033409D239B000022E2540E4BE5180E4BE2181C
S214003350A63B211C7431009101930C4902910C4943
S2140033600391281C211C0B4EB047E323DB00E11819
S2140033701033E25A281C084B984704B070BDC0466C
S214003380853200002C070000A60200009D330000D6
S2140033907139000079A30000F1A30000F0B55F4684
S2140033A056464D464446F0B485B0002B00D15BE24D
S2140033B09A4693460D1C9623DB00CB5C002B04D06C
S2140033C09523DB00C818CF4B9847CF485146CF4BC4
S2140033D09847CF4BEB5C00229146002B10D15B4602
S2140033E01978CB4BE954CB4AAB580133AB50CA489B
S2140033F0C64B98475346012B00D835E20123994621
S214003400C64BEB5C002B39D15F464F44C14EBF4BD9
S2140034109846CA4500D827E201239C46E1443C78FA
S214003420AB590133AB519722D200AB5C0133AB549E
S214003430BB48C047AB59052B08D9281C8021002261
S214003440B84B9847B848B14B98470DE2B7496A5C05
S2140034507F23234053430193B5482B5A9C46019B38
S21400346063442B52D2016A54013764B2002CD0DB7D
S214003470B048A64B98470122A84BEA54AC4BEA5AF0
S21400348080239B009A4200D8D0E0A14BEB5C0F2132
S2140034908B43302B00D1C9E09E496B5853446B5088
S2140034A00132934200D2DFE101229623DB00EA5488
S2140034B0DAE1974BEB5C0F218B43302B73D19E4B9D
S2140034C0EB5C002B6FD19D4BEB5C002B1CD14B466D
S2140034D0581C5B4649465B5C1B0299496B52511C63
S2140034E08C4C295150455DD202218C46E144594608
S2140034F0095C1943924BE95202322A5101228F4B42
S214003500EA549048814B98478C4BEB5A012B4AD192
S2140035108D4BE95A8A4BEB5A5B1A52464846171AA5
S2140035209F4200D91F1C3E04360C8848321C774B3D
S2140035309847854C285B2818854B9C46604459461E
S2140035404944321C834B9847B144724BEA58944620
S2140035506644EE502B5BFB189BB22B53784AAA5A54
S2140035609A421BD17C487A4BE918684B984701224F
S214003570714BEA542B5BEB18D822D2009446634476
S21400358000221A716A4BEB5A023B6D4AAA5A9B1AE2
S2140035909BB2E222D200AB52704AAB520122704B71
S2140035A0EA5400E08146D0466E4BEA5C80239B00DE
S2140035B09B1A52464946561A9E4200D91E1C6A4815
S2140035C0311C524FB847674C285D2818674B9C46FD
S2140035D0604459464944321C5E4B98474D4AAB58A6
S2140035E0F318AB502B5DF3182B55B1446048B84721
S2140035F0002E0DD00024454F2B199722D20094465A
S214003600634499785B48B8470134E4B2A642F3D8DD
S21400361059483E4B984743464B4507D8444BEB5AD0
S21400362001333C4AAA589A4200D21DE1394BEA5867
S2140036303F4BEB5A01339A4200D23AE74E48334C9E
S214003640A0474E48A0473A4BE95A01314C48A0479C
S2140036502F4BEB5C0F229343602B00D1FBE0DAB2DA
S214003660602A0DD8302B3DD0302A02D8202B18D017
S214003670F6E0402B00D193E0502B00D1EBE0EFE0DA
S214003680DAB2902A00D19FE003D8702B00D1E2E096
S214003690E6E0DAB2B02A00D1BDE0D02A00D1D6E00A
S2140036A0DEE03848194B9847374BEB5C002B05D0CB
S2140036B0354BEA18281C82211A4B98470122334BB7
S2140036C0EA54281C1830E98AC901314A2B1C314CAF
S2140036D0A04708226023EA54281C00210022114B30
S2140036E09847BDE0214BEB18E122D200AB501D4BB2
S2140036F0EA5C294BEA520022184BEA52281C274B58
S2140037009847ADE0853200007C1F010031090100BA
S214003710B1040000AC040000A01F0100B7040000C4
S214003720BC1F010065320000E01F0100B604000067
S214003730B204000010200100BF060000BE06000014
S214003740BA06000040200100BC060000642001000C
S214003750C4060000E70801008820010012070000E8
S2140037600E070000B9040000A0200100BA04000003
S214003770C0200100D8200100F42D0100E020010047
S2140037800421010030210100BB0400009902000062
S214003790B938000015E600000C0700009D32000056
S2140037A03548364B98470122354BEA54354BEB5C8F
S2140037B01B02354AAA5C1343344AAB52AA18281C8B
S2140037C00521334B98474BE032482C4B9847324BF9
S2140037D0EB5A032B02D93148284B98470122284B35
S2140037E0EA54284BEB5C1B02274AAA5C134303AA45
S2140037F013802B49695C9170244AAB52294AAA5A15
S2140038009A4202D028481D4B9847281C022103AA3A
S2140038101F4B984724E02548184B98470122184B21
S214003820EA54184BEB5C1B02174AAA5C1343174A70
S214003830AB521C4AAA5A9A4202D01D480F4B9847D0
S214003840124BEA18281C0321114B984708E0194828
S2140038500A4B984704E0281C842100220C4B98470A
S21400386001229623DB00EA54002005B03CBC9046BB
S2140038709946A246AB46F0BD482101003109010039
S21400388099020000BA040000BB040000B404000063
S214003890653200005C210100B204000070210100C6
S2140038A0BC04000086020000A821010028220100B6
S2140038B040220100C422010010B5041C0F48104B22
S2140038C098473823E35C002B11D002226023E25491
S2140038D00C4B9C466444201C0B4B9847201C0B4BFF
S2140038E09847201C00213422094B984705E0094BD5
S2140038F019780948221C094B984710BDDC220100A4
S214003900310901002C070000D5A40000EDA400003A
S21400391021090100740300200C000020F9EB0000D0
S21400392070B5041C031C7433036700226A23C25458
S2140039309E239B00C01800212432094EB047094B35
S214003940E518281C084B9847281C084B9847281C45
S21400395000213422B04703226023E25470BDC046E3
S214003960210901002C070000D5A40000EDA40000EA
S21400397010B582B00C1C6B46DA71111E032902D8F2
S214003980002A23D002E0042A2ED040E02248234B0F
S2140039909847234B19782348221C234B9847032229
S2140039A06023E254201C1830204B9847201C01212D
S2140039B06B46DA1D1E4B9847201C1E4B9847637DAE
S2140039C0012B27D1201C1C4B984723E0062260239E
S2140039D0E254053A9D239B00E254184B197811488F
S2140039E0221C114B984715E015480C4B9847154B71
S2140039F0E35A002B06D101229D239B00E254231C90
S214003A0074332367201C18300F4B984702E00F488A
S214003A10024B984702B010BD042301003109010093
S214003A207B0300200C000020F9EB000005E70000F7
S214003A3065320000213900001933000077030020AA
S214003A402C2301004E070000B9E6000048230100C1
S214003A5038B5016F051C7435A94204D101229D2397
S214003A609B00C2540FE0041C00229D239B00C254FE
S214003A70491B0548054B9847054BE018226F521B1B
S214003A80291C044B984738BD9423010031090100D6
S214003A902C07000095A4000070B5041C0E1C9D2386
S214003AA09B00C518036FE91A0848321C084B984754
S214003AB0236FAB4204D1201C064B9847012004E03C
S214003AC01E70236F01332367002070BDC8230100DA
S214003AD031090100513A0000F0B5474680B4061C93
S214003AE0151C9046A8239B00C358006F9D22920089
S214003AF0B218121AEC1A944200D9141C2404240C8E
S214003B00C918221C0F4B9847A827BF00F359E21884
S214003B10F251336F9C46644434670B48291C0B4BA8
S214003B209847F359984503D10022F251002006E049
S214003B30301C074B9847A8239B00F058281A04BC53
S214003B409046F0BDE7080100FC23010031090100A2
S214003B50513A000010B500280AD00160002905D0AF
S214003B60041C081C034B9847A08001E000238380B8
S214003B7010BDC046E90B010010B5194B1B78002B91
S214003B802CD1184CA047184B1870184B1870A0472B
S214003B90174B1870A047174B1870A047164B187095
S214003BA0A047164B1870A047154B1870A047154B2A
S214003BB01870A047144B1870A047144B1870144B7D
S214003BC01870A047134B18701348144B98471448A6
S214003BD00021144B98470122014B1A7010BDC046B5
S214003BE086030020EDEA0000850300207503002010
S214003BF0770300207A0300207C0300208403002043
S214003C007803002074030020542B00207B03002040
S214003C107603002079030020880300200157000067
S214003C200C00002069EC0000F0B583B0041C08A866
S214003C30068815788220002D2FD01F1C01920D1C9F
S214003C40201C0021EC22D200154B9847201C0C307B
S214003C500199144B98476766E56601236375A922A8
S214003C609200A6526822A3520022A7239B00E2528B
S214003C703823E2549523DB00E0180B4B98479D232E
S214003C809B000022E254094B98470948211C094B27
S214003C9098470948094B9847002003B0F0BDC04636
S214003CA021090100553B000085320000793B0000E9
S214003CB088030020595700002C2401003109010018
S214003CC030B585B0041C6025455D032D21D812480B
S214003CD02150E382E523DB00E252231C7433236782
S214003CE001220E4BE254227D0223134323756D46B8
S214003CF0081C69460A4B9847E323DB00E31807CD08
S214003D0007C32A681A60074B19780748221C074B16
S214003D109847002005B030BD140700009902000047
S214003D2079AB0000850300200C000020F9EB0000B2
S214003D3008B56023C35C082B08D1021C0921583340
S214003D40C154034B19780348034B984708BDC04637
S214003D507A0300200C000020F9EB0000F0B557466F
S214003D604E464546E0B484B0041C151C0F236B4435
S214003D7019700388C54A934201D100F00EFC0AD898
S214003D80C34A934225D0C34A93426DD0002B01D03C
S214003D9001F0D1FA18E0C04A934201D100F0A5FD27
S214003DA006D8BE4A934201D100F0A9FC01F0C3FA3E
S214003DB0BB4A934201D100F051FFBA4A934201D167
S214003DC001F0EBF801F0B7FAB14B2380012001F0C7
S214003DD0EEFA0F236B441A78B34B1B789A420AD13B
S214003DE0B248B34B9847B34B1D600A226023EA548F
S214003DF0281CB14B98470F236B441A78AF4B1B789F
S214003E009A4207D1AB4E3560AD48A94B984730680B
S214003E10AC4B98470F236B441A78AB4B1B789A42EF
S214003E2000D090E3A34E3560A9239B00EA5AA74B27
S214003E30EA52A7489E4B984733689D2292009A5CA8
S214003E40012A00D07FE30021A722920099522BE09E
S214003E50A04B1978A04B18680022A04B98478D4BB2
S214003E602380012001F0A3FA0F236B4419788E4BB0
S214003E701B788B420BD18F4B1B680A21602299540A
S214003E800021A72292009952022001F090FA944B4A
S214003E901B788B4208D8934B1B788B4204D38E4BEF
S214003EA018682A1C8D4B9847824B1E68A7239B00D8
S214003EB0F35A7622FF32934200D1D1E139D86E22EE
S214003EC0FF32934200D144E116D8033A934200D120
S214003ED0CAE007D8002B6CD06822FF32934200D18C
S214003EE0ADE02CE36C22FF32934200D10BE10132AD
S214003EF0934200D11AE122E3B8225200934200D145
S214003F0061E109D8023A934200D136E17022FF32CD
S214003F10934200D144E112E3B9225200934200D109
S214003F2078E100D263E17422FF32934200D184E14B
S214003F3005E3C3225200934200D12DE21AD80C3A70
S214003F40934200D1CAE109D87822FF32934200D1C9
S214003F509DE10132934200D1ACE1F0E2BE22520074
S214003F60934200D1E2E100D2CDE10232934200D189
S214003F70F0E1E4E28E22FF32934200D14BE209D810
S214003F808822FF32934200D119E20332934200D1D5
S214003F9029E2D4E29222FF32934200D16DE29E22C1
S214003FA0FF32934200D18CE20F3A934200D0C6E231
S214003FB044E24D483E4B984710229E239B00F25405
S214003FC0338A0022934200D09A1C0C325423F15AB2
S214003FD00023994200D08B1CD2185C23F15A002390
S214003FE0994200D08B1CD2184023F15A00239942E4
S214003FF000D08B1CD2184823F15A0023994200D0D7
S2140040008B1CD2189F239B00F2500433F018043305
S214004010F118364B9847A1239B00F35C042B15D967
S214004020301C81210022324B98470022A7239B0098
S214004030F25288E26822FF32A7239B00F2529D23A9
S2140040409B00F35C002B01D101F079F99E239B00C5
S214004050F15C301C274B98470028EBD10BE0B522CB
S2140040605200A7239B00F2529D239B00F35C002B7B
S21400407001D101F064F9A0239B00F1180433F25C2F
S214004080301C1D4B98470028E9D143E07A04000015
S214004090550400006C040000990400008C04000025
S2140040A0A6040000B30400007B0300205024010097
S2140040B0310901008003002021390000850300201B
S2140040C06024010019330000770300205407000025
S2140040D088240100790300202C1D0020F9EB000045
S2140040E07503002076030020B4240100F13100009F
S2140040F065320000993A0000D93A00006C22FF327F
S214004100A7239B00F2529D239B00F35C002B01D15A
S21400411001F015F9301C0021D04B98470028EDD14E
S2140041200BE0B6225200A7239B00F2529D239B0071
S214004130F35C002B01D101F002F9301C0621C74BBD
S21400414098470028EDD10BE06E22FF32A7239B0094
S214004150F2529D239B00F35C002B01D101F0EFF897
S214004160301CBF490622BF4B98470028ECD10BE015
S214004170B7225200A7239B00F2529D239B00F35CBC
S214004180002B01D101F0DBF8301C0321B34B98471C
S2140041900028EDD10BE07022FF32A7239B00F252DD
S2140041A09D239B00F35C002B01D101F0C8F8317D04
S2140041B0301CAA4B98470028EDD10BE0B8225200DD
S2140041C0A7239B00F2529D239B00F35C002B01D19A
S2140041D001F0B5F8F18A090A301CA04B9847002870
S2140041E0ECD10BE07222FF32A7239B00F2529D23F4
S2140041F09B00F35C002B01D101F0A1F8B17D301CCF
S214004200964B98470028EDD10BE0B9225200A72321
S2140042109B00F2529D239B00F35C002B01D101F022
S2140042208EF8301C00218D4B98470028EDD10BE00E
S2140042307422FF32A7239B00F2529D239B00F35C5F
S214004240002B01D101F07BF8317C301C834B984762
S2140042500028EDD10BE07622FF32A7239B00F25216
S2140042609D239B00F35C002B01D101F068F8328A95
S214004270301CF1687B4B98470028ECD1337D5B07F8
S2140042800CD480E07822FF32A7239B00F2529D23B5
S2140042909B00F35C002B01D101F051F8301C00218B
S2140042A06E4B98470028EDD10BE0BC225200A723A6
S2140042B09B00F2529D239B00F35C002B01D101F082
S2140042C03EF84023F15C301C644B98470028ECD144
S2140042D00BE0BD225200A7239B00F2529D239B00B9
S2140042E0F35C002B01D101F02AF84023F25A301C6F
S2140042F0F16B5C4B98470028EBD10BE07C22FF3239
S214004300A7239B00F2529D239B00F35C002B01D158
S21400431001F015F8301C0021504B98470028EDD1CD
S2140043200BE0BE225200A7239B00F2529D239B0067
S214004330F35C002B01D101F002F84823F15C301C3D
S214004340464B98470028ECD10BE0BF225200A7232B
S2140043509B00F2529D239B00F35C002B01D100F0E2
S214004360EEFF4823F25A301C716C3E4B98470028EB
S214004370EBD14023F25A0833F35A00933A48F16BD4
S214004380736C3A4FB847337D7F2B3BD90BE0C32283
S2140043905200A7239B00F2529D239B00F35C002B48
S2140043A001D100F0CCFF301C00212C4B9847002890
S2140043B0EDD10BE08822FF32A7239B00F2529D230B
S2140043C09B00F35C002B01D100F0B9FF5423F15C95
S2140043D0301C224B98470028ECD10BE0C522520037
S2140043E0A7239B00F2529D239B00F35C002B01D178
S2140043F000F0A5FF5423F25A301C316D194B984734
S2140044000028EBD1337D5B060CD445E08E22FF32CC
S214004410A7239B00F2529D239B00F35C002B01D147
S21400442000F08DFF301C00210C4B98470028EDD182
S2140044300BE0C7225200A7239B00F2529D239B004D
S214004440F35C002B01D100F07AFF5C23F15C301C9A
S214004450024B98470028ECD116E0C046993A000077
S214004460D8240100D93A0000E024010031090100F7
S2140044709222FF32A7239B00F2529D239B00F35CFF
S214004480002B01D100F05BFF5C23F25A301CB16DAB
S214004490C04B98470028EBD1301CBF4B98470722EB
S2140044A06023F254301DA021C900BC4B98479523C9
S2140044B0DB00F018BA4B98479E22FF32A7239B00DA
S2140044C0F252B84BF35C012B06D0301DB64B984722
S2140044D0002801D100F033FF301DB34B9847002869
S2140044E005D0B248B24B9847301CB24B984795233C
S2140044F0DB00F018AA4B9847AF48AD4FB847AF4817
S214004500B84774239846B044336F42469B1A002B34
S21400451012DD00273B1CAA4A9246A54A9146F3188C
S214004520703319795046C8470137BFB23B1C326F0B
S2140045304146521A9742F2DBA2489D4B984700220A
S214004540A7239B00F2520F236B441A789E4B1B78CE
S2140045509A4200D0A9E09D4E35609D48944B9847FE
S21400456032686023D35C092B00D09EE09D239B001D
S214004570D35C012B00D093E00021A7239B00D152EF
S2140045802BE0944B1978944B18680022934B98476D
S214004590934B2380012000F00AFF0F236B44197809
S2140045A0904B1B788B420BD1884B1B680A216022EC
S2140045B099540021A72292009952022000F0F7FE9B
S2140045C0894B1B788B4208D8884B1B788B4204D3C8
S2140045D0814B18682A1C814B98477C4B1E68A72382
S2140045E09B00F35ADC225200934211D002D8002BD3
S2140045F015D046E0BA22FF3293421CD0C422FF32C6
S214004600934232D03DE0DC225200A7239B00F252B8
S2140046109D239B00F35C002B01D100F09AFE301C1A
S214004620E021734B98470028EDD10BE0BA22FF3209
S214004630A7239B00F2529D239B00F35C002B01D125
S21400464000F087FE301C0021694B98470028EDD10A
S214004650301C514B9847301D802149004F4B9847DE
S214004660C422FF32A7239B00F2529D239B00F35CDB
S214004670002B06D1301D4C4B9847002801D100F086
S21400468068FE0022A7239B00F252504E3068594B1A
S2140046909847306801210F226A44574B984704E038
S2140046A0494B197855484D4B98470F236B441A7859
S2140046B0534B1B789A4200D0EDE0444E356051488B
S2140046C03B4B984733689D2292009A5C012A00D0A3
S2140046D0E1E05F329A5C082A00D0DCE00021A722E5
S2140046E0920099522BE03B4B19783B4B18680022FE
S2140046F03A4B9847444B2380012000F058FE0F2386
S2140047006B441978374B1B788B420BD12F4B1B68A9
S2140047100A21602299540021A72292009952022071
S21400472000F045FE304B1B788B4208D82F4B1B7889
S2140047308B4204D3284B18682A1C284B9847234BD7
S2140047401E68A7239B00F35A304A934213D002D820
S214004750002B08D09BE02E4A934263D02D4A93420A
S21400476000D180E093E02C48114B98470AE0274A96
S214004770A7239B00F2529D239B00F35C002B01D1E4
S21400478000F0F1FD301CC021194B98470028EED1EF
S2140047904FE0C046D93A0000513A00005DED0000F7
S2140047A085320000990200008DED00002C250100E6
S2140047B031090100313D00004C2501006C25010047
S2140047C0D8200100F42D01007A0300208003002089
S2140047D08C250100790300202C1D0020F9EB000039
S2140047E07A0400007B030020750300207603002077
S2140047F0993A000021390000653200000C000020C4
S21400480074030020B82501008C040000A5020000F7
S214004810A6020000B1020000DC250100BF4AA72363
S2140048209B00F2529D239B00F35C002B01D100F00D
S2140048309AFD301C0021BA4B98470028EED1301C58
S214004840B84B984701223823F2549523DB00F01822
S214004850B54B9847301DA021C900B44B9847B44AC1
S214004860A7239B00F2529623DB00F35C002B06D1B5
S214004870301DB04B9847002801D100F074FD9523F9
S214004880DB00F018A84B984700223823F254002289
S214004890A7239B00F2520F236B441A78A64B1B7873
S2140048A09A4200D0B1E1A54E3560A548A54B984781
S2140048B033689D2292009A5C012A00D0A5E15F32FF
S2140048C09A5C082A00D0A0E10021A7229200995203
S2140048D02BE09D4B19789D4B186800229C4B9847FF
S2140048E09C4B2380012000F062FD0F236B44197857
S2140048F0994B1B788B420BD1904B1B680A21602288
S21400490099540021A72292009952022000F04FFDF0
S214004910924B1B788B4208D8914B1B788B4204D362
S2140049208A4B18682A1C8A4B9847844B1E68A72314
S2140049309B00F35AEA22FF32934200D19CE00FD844
S214004940E422FF32934258D002D8002B22D058E1FE
S214004950F3225200934265D00232934279D050E15E
S214004960F7225200934200D1C5E009D8EC22FF326C
S214004970934200D194E00132934200D1A6E040E198
S214004980F022FF32934200D1FDE00932934200D17B
S2140049901AE136E1A327BF00F25B7248A2239B0010
S2140049A0F158684B984698479D239B00F318326F42
S2140049B0991A6D48C04782229E239B00F254F25BF0
S2140049C005320433F2500433F0180433F118674B01
S2140049D09847A1239B00F35C042B15D9301C81213A
S2140049E00022634B98470022A7239B00F2520CE15B
S2140049F0E422FF32A7239B00F2529D239B00F35C28
S214004A00002B01D100F0B9FC9E239B00F15C301C0A
S214004A10434B98470028EBD10BE0F3225200A72324
S214004A209B00F2529D239B00F35C002B01D100F00B
S214004A30A4FCA0239B00F1180433F25C301C4D4B01
S214004A4098470028E9D10BE0F4225200A7239B00E8
S214004A50F2529D239B00F35C002B01D100F08DFCED
S214004A60301C00212E4B98470028EDD10BE0EA229F
S214004A70FF32A7239B00F2529D239B00F35C002B82
S214004A8001D100F07AFC3C4BF15C301C244B98477B
S214004A900028ECD10BE0EC22FF32A7239B00F25259
S214004AA09D239B00F35C002B01D100F066FCA32342
S214004AB09B00F15A090A301C194B98470028EAD186
S214004AC00BE0F6225200A7239B00F2529D239B0088
S214004AD0F35C002B01D100F050FCA3239B00F15C9B
S214004AE0301C0F4B98470028EBD10BE0F722520002
S214004AF0A7239B00F2529D239B00F35C002B01D161
S214004B0000F03BFCA3239B00F25A301C043BF158F8
S214004B10184B98470028E9D13CE0C046A6020000A2
S214004B20993A0000513A0000853200005DED000021
S214004B30B10200008DED00007C0300208003002001
S214004B40F825010031090100790300202C1D002002
S214004B50F9EB0000990400007B0300207503002099
S214004B60760300202426010064260100F1310000AF
S214004B7065320000D93A000086020000F022FF32BB
S214004B80A7239B00F2529D239B00F35C002B01D1D0
S214004B9000F0F3FBA6239B00F15C301CA64B984765
S214004BA00028EBD1301CA54B9847301DA021C9002A
S214004BB0A34B98479523DB00F018A24B9847FC229E
S214004BC05200A7239B00F2529F4BF35C012B05D0AB
S214004BD0301D9E4B9847002800D1CEE3301D9B4BDE
S214004BE09847002802D09A489A4B98479523DB00AE
S214004BF0F018944B984700226A23F2549648954B37
S214004C0098470022A7239B00F2520F236B441A7882
S214004C10924B1B789A4200D093E1914E35609148B2
S214004C208C4B984733689D2292009A5C012A00D0EC
S214004C3087E15F329A5C082A00D082E10021A72231
S214004C409200995229E0884B1978884B1868002200
S214004C50874B9847874B23800120A8E30F236B449C
S214004C601978854B1B788B420AD17D4B1B680A212D
S214004C70602299540021A72292009952022096E3BE
S214004C807E4B1B788B4208D87D4B1B788B4204D317
S214004C90764B18682A1C764B9847714B1E68A723DC
S214004CA09B00F35A774A934200D18FE00ED8764A9B
S214004CB0934251D002D8002B1CD03EE189229200AC
S214004CC093425DD0714A93426FD036E1704A934268
S214004CD000D1A1E004D86F4A934200D188E02CE1CD
S214004CE08B229200934200D1E9E06B4A934200D1B6
S214004CF006E122E1A327BF00F25B6848A2239B00DF
S214004D00F158544B984698479D239B00F318326FF2
S214004D10991A6348C047A2229E239B00F254F25B76
S214004D2004320433F2500433F0180433F1185D4BA8
S214004D309847A1239B00F35C042B13D9301C8121D8
S214004D400022594B98470022A7239B00F252F8E016
S214004D504D4AA7239B00F2529D239B00F35C002B39
S214004D6000D113E39E239B00F15C301C324B984726
S214004D700028EDD10AE089229200A7239B00F25278
S214004D809D239B00F35C002B00D1FFE2A0239B0039
S214004D90F1180433F25C301C444B98470028EAD1E3
S214004DA009E03A4AA7239B00F2529D239B00F35C3E
S214004DB0002B00D1EAE2301C00211F4B9847002848
S214004DC0EFD109E02F4AA7239B00F2529D239B00B8
S214004DD0F35C002B00D1D9E2354BF15C301C164B4E
S214004DE098470028EED109E02A4AA7239B00F252F2
S214004DF09D239B00F35C002B00D1C7E2A3239B00FE
S214004E00F15A090A301C0C4B98470028ECD109E0EF
S214004E101F4AA7239B00F2529D239B00F35C002BA6
S214004E2000D1B3E2A3239B00F15C301C024B9847F1
S214004E300028EDD149E0C046993A0000513A0000FA
S214004E405DED000085320000990200008DED000047
S214004E508426010031090100A426010084030020F5
S214004E6080030020C8260100790300202C1D0020A6
S214004E70F9EB0000A60400007B0300207503002069
S214004E80760300202702000022020000260200000F
S214004E902A0200002902000035020000F826010060
S214004EA064260100F131000065320000D93A0000A6
S214004EB0860200008B229200A7239B00F2529D23BD
S214004EC09B00F35C002B00D160E2A3239B00F25A08
S214004ED0301C043BF158C44B98470028EAD1301CDC
S214004EE0C24B9847301DA021C900C14B9847952357
S214004EF0DB00F018BF4B9847BF4AA7239B00F2522F
S214004F00BE4BF35C012B05D0301DBD4B98470028E7
S214004F1000D13BE2301DBA4B9847002802D0B94872
S214004F20B94B98479523DB00F018B24B9847002200
S214004F306A23F254B548B44B98470022A7239B0037
S214004F40F2520F236B441A78B14B1B789A4201D069
S214004F50FEF73AFFAF4E3560AF48AB4B9847336825
S214004F609D2292009A5C012A01D0FEF72DFF5F3247
S214004F709A5C082A01D0FEF727FF0021A72292009C
S214004F80995229E0A54B1978A54B18680022A54B25
S214004F909847A54B2380012009E20F236B4419781C
S214004FA0A24B1B788B420AD19A4B1B680A216022BF
S214004FB099540021A722920099520220F7E19C4BB7
S214004FC01B788B4208D89B4B1B788B4204D3944BA0
S214004FD018682A1C934B98478E4B1D68A7239B0086
S214004FE0EB5A954A934200D1B1E00FD8934A9342C8
S214004FF070D002D8002B21D097E19A2292009342DB
S2140050007CD08F4A934200D18DE08EE19C229200A4
S214005010934200D1DAE008D88A4A934200D1A9E048
S214005020894A934200D1BFE07FE1884A934200D18B
S21400503020E1874A934200D14CE176E1A3239B000E
S214005040EA5A8448043BE9586F4EB0479D239B00BC
S214005050EB182A6F991A8048B047A6239B00EA5C93
S214005060530030210B43DBB29E2189006B547B49F1
S214005070695C012903D10B439E2189006B54A3234D
S2140050809B00E95A0833EB58CB18981C9F218900DF
S2140050906850002A01D004336B50A0239B00E81808
S2140050A00433E918083BEA586D4B9847A1239B0048
S2140050B0EB5C042B14D9281C81210022694B9847ED
S2140050C00022A7239B00EA52FEF77EFE5B4AA72338
S2140050D09B00EA529D239B00EB5C002B00D15DE118
S2140050E09E239B00E95C281C5F4B98470028EDD167
S2140050F00AE09A229200A7239B00EA529D239B0077
S214005100EB5C002B00D149E1A0239B00E918043397
S214005110EA5C281C344B98470028EAD109E0484A44
S214005120A7239B00EA529D239B00EB5C002B00D13B
S21400513034E1A3239B00E95A090A281C4A4B9847E6
S2140051400028ECD109E03C4AA7239B00EA529D23A5
S2140051509B00EB5C002B00D120E1A3239B00E95CC5
S214005160281C414B98470028EDD109E0354AA72373
S2140051709B00EA529D239B00EB5C002B00D10DE1C7
S214005180A3239B00EA5A281C043BE958164B984771
S2140051900028EBD1A6239B00EB5C002B0AD16FE026
S2140051A0294AA7239B00EA529D239B00EB5C002B19
S2140051B000D1F3E0281C00212B4B98470028EFD1A4
S2140051C00AE09C229200A7239B00EA529D239B00A4
S2140051D0EB5C002B00D1E1E01D4BE95C281C224B68
S2140051E098470028EDD14BE0D93A0000513A00002C
S2140051F05DED0000853200003502000099020000D7
S2140052008DED00003C270100310901005C270100FC
S21400521078030020800300209427010079030020F3
S2140052202C1D0020F9EB0000B30400007B030020D7
S21400523075030020760300206B0200006602000063
S2140052406A0200006D0200006F0200007502000096
S21400525086020000C0270100642601009A020000B2
S214005260F131000065320000993A0000534AA72346
S2140052709B00EA529D239B00EB5C002B00D18DE047
S214005280A5239B00EA5892B2281C043BE9584C4BD5
S21400529098470028EAD1281C4A4B9847281DA02189
S2140052A0C900494B9847A6239B00EB5C002B06D110
S2140052B0464B1978E86E0022454B98472AE0012BAA
S2140052C023D19523DB00E818424B9847424AA72390
S2140052D09B00EA52414BEB5C012B04D0281D404B4F
S2140052E0984700285AD0281D3D4B9847002802D0E2
S2140052F03C483D4B98473D4BEA5A374BEB5A9A424F
S21400530008D03B48384B984704E0022B02D1394876
S214005310354B98479523DB00E8182E4B984700221C
S2140053206A23EA543448304B98470022A7239B0050
S214005330EA52FEF749FD00232380032037E02F4B77
S2140053401A686023D35C0A2B01D0FEF781FDFFF7B5
S214005350FAF82A4B1A686023D35C0A2B01D0FFF7B1
S21400536010F9FFF792F9254B1A686023D35C082BD7
S21400537001D0FFF790FAFFF7B6F9204B1A686023C2
S214005380D35C082B00D040E4FFF7A3FA1B4B1A6847
S2140053906023D35C082B00D0D3E554E4174B1A687F
S2140053A06023D35C082B01D0FEF70EFDEAE504B0BF
S2140053B01CBC90469946A246F0BDC0467502000049
S2140053C0D93A0000513A00005DED0000542B002051
S2140053D0F9EB00008532000086020000990200000A
S2140053E08DED0000FC27010031090100B404000027
S2140053F01C28010098280100BC280100800300201A
S21400540070B5041C151C1E1C6023C35C8120082B71
S2140054102DD11748174B98476A23E35C002B04D01E
S2140054201548144B9847012021E001226A23E254D4
S2140054301248104B98476822A35A02339BB2A352D5
S2140054400F4AA352A2239B00E550281C0D4B9847F9
S214005450A3239B00E0520C33E65400220A4BE2548E
S2140054600A4B19780A48221C0A4B9847002070BD40
S214005470D828010031090100FC2801001429010088
S21400548086020000E90B0100990200007C03002060
S2140054900C000020F9EB0000F0B583B0041C00926D
S2140054A0019308AB40CB1F780AAB1D786023C35C22
S2140054B08120082B34D11B481B4B98476A23E35C9A
S2140054C0002B04D01948184B9847012028E00122E9
S2140054D06A23E2541648144B98476822A35A0233AC
S2140054E09BB2A352134AA352134BE554123B009AA5
S2140054F0E250101C114B9847A3239B00E052043344
S214005500019AE2500433E6500433E75400220C4B71
S214005510E2540C4B19780C48221C0C4B9847002080
S21400552003B0F0BD5029010031090100FC2801003C
S21400553014290100860200009A020000E90B01000F
S21400554099020000780300200C000020F9EB000010
S214005550F8B5041C0E1C151C50300F4FB847201C05
S2140055605830291CB847002E05D0237D8022524291
S2140055701343237503E0237D7F2213402375002DFC
S21400558004D0227D40231343237503E0237D40226D
S21400559093432375F8BDC046553B000038B5051C3F
S2140055A00124044067D0394B1A78394B1B78534096
S2140055B0DB0707D5374B9847374BD8600122374B68
S2140055C0DA705BE0354BDB78002B5AD0314B9847CE
S2140055D0334A314BDB68D168CB1A1818D0600022EA
S2140055E02E4BDA704AE0294B1A78294B1B78534029
S2140055F09B0707D5274B9847274B18610122274B57
S2140056001A710FE0254B1B79002B0BD0214B9847C6
S214005610234A214B1B691169CB1A18181061002206
S2140056201E4B1A71002C1ED0184B1A78184B1B787C
S2140056305340DB0707D5174B9847174B5861012295
S214005640164B5A710FE0154B5B79002B0BD0114BA4
S2140056509847134A104B5B695169CB1A181850616A
S21400566000220E4B5A710A4B1878084B1B7858408C
S2140056700C4B984708E08307B5D4F4E7AB07B2D4E1
S214005680D2E78307AFD4DEE738BDC0468C030020E0
S2140056908D0300208DF80000CC330020C03300209E
S2140056A08C330020B1F5000008B5044B9847002362
S2140056B0034A1370034A137008BDC04685F5000000
S2140056C08D0300208C03002008B5044A1378011CC3
S2140056D0194311709843024B984708BD8C0300206D
S2140056E09D55000008B5044A1378191C81431170B3
S2140056F01840024B984708BD8C0300209D550000BB
S214005700002303607047C0460068704700680028A2
S21400571001D104E0181C0368002BFBD100E0002038
S2140057207047C0460268002A14D08A420FD104E0AF
S21400573099420BD1002A04D1191C0B6803600B1C7C
S21400574001E01968116000221A6003E01A1C136851
S214005750002BEDD17047C04638B5051C0C1C064B17
S214005760984700232360281C044B9847002801D143
S2140057702C6000E0046038BD255700000D5700007F
S21400578038B5041C0D1C034B984723682B60256016
S21400579038BDC046255700000368002B05D0002002
S2140057A001301B68002BFBD100E000207047C0468C
S2140057B0002801D0006800E00020704738B5041CBF
S2140057C0428840680021044DA847228863885A43CF
S2140057D0A0680021A84738BD2109010030B54588DA
S2140057E0002D1ADD44682378002B0FD106E01C1C20
S2140057F00133591E097800290AD100E0002201234E
S214005800237003885A438068801807E0631C0022D0
S2140058100132AA42EBDB002000E0002030BDC0468B
S21400582070B582684588002D1DDD8A4211D103E0DF
S2140058309419914211D100E00023191C4268944645
S21400584063441A78002A01D0013A1A704368585CFB
S2140058500AE006889219002300E0221C0133AB42BE
S214005860E6DBFF2000E0FF2070BDC046031C826818
S21400587000208A4206D858881B8858431018814250
S214005880894148427047C04608B5014B984708BD55
S2140058908D09010008B5024B984780B208BDC04686
S2140058A0E9090100F8B5071C0388782B26D07F2B62
S2140058B03CD0002B59D12F4B98472F4B1870002205
